:400000000080002011000000990C0000990C000008B5044B1A6803F53F5302331A6000F03DFE00BFFA46004010B5054C237833B9044B13B10448AFF300800123237010BDF2
:40004000F080FF1F0000000088260000084B10B51BB108490848AFF300800848036803B910BD074B002BFBD0BDE81040184700BF00000000F480FF1F88260000C880FF1F58
:400080000000000070B562B600F090FE01F066F801F0BCF800F0BAF900F0F2F900F018FB00F0E4FF00F062FB00F0E0FA064600F03BFB05460021084600F0E6FF574C20461C
:4000C00000F076FF0021012000F0DEFF204600F06FFF0021084600F0D7FF304601F002F80021012000F0D0FF284600F0FBFF01F0B1F8002800F08A8001F096F820385A28C4
:400100007FD8DFE800F07B7E7E7E7E7E7E7E7E7E7E787E757E7E72575A5D606366696C6F7E7E7E7E7E7E7E7E7E7E7E7E7E7E7E7E7E7E7E7E7E7E7E7E7E7E7E7E7E7E7E7E36
:400140007E7E7E7E7E7E7E337E523C477E7E7E7E7E7E7E7E7E7E7E417E387E7E7E2E7E7E4D004FF47A7000F067F953E04FF47A7000F0BAF94EE02A4800F05EF94AE04FF461
:400180007A7000F0E5F945E000214FF47A7000F07FF93FE000214FF47A7000F0ADF939E04FF47A7000F0DCF934E04FF47A7000F0DFF92FE000F0E0FA2CE000F0F7FA29E0C6
:4001C00000F00CFB26E000F021FB23E000F038FB20E000F051FB1DE000F06AFB1AE000F067FB17E000F090FB14E000F07DFB11E000F09AFB0EE000F0F5FB0BE000F040F9D0
:4002000008E000F03DF900F0EDFB03E000F038F900F0E8FB642000F0F1FD45E79426000018FCFFFF2DE9F0410446B2F5806F01D340F2FF32B1F5806F01D340F2FF31160A5E
:40024000D5B24FEA1128CFB2FF2000F0BDFDFF2000F0BAFD204600F0B7FD072000F0B4FD032000F0B1FD062000F0AEFD384600F0ABFD404600F0A8FD284600F0A5FD30467A
:4002800000F0A2FD38194044284430441030C0B2C043C0B200F098FD022000F0AFFDBDE8F08100BF70B50546002903DA494289B2012401E089B20024B1F5806F01D340F27F
:4002C000FF3141EA842424B2C4F30726E4B2FF2000F07AFDFF2000F077FD284600F074FD052000F071FD032000F06EFD202000F06BFD204600F068FD304600F065FD60193E
:4003000030442830C0B2C043C0B200F05DFD022000F074FD70BD00BF2DE9F0410446B2F5806F01D340F2FF32B1F5806F01D340F2FF31160AD5B24FEA1128CFB2FF2000F07F
:400340001BFFFF2000F018FF204600F015FF072000F012FF032000F00FFF1E2000F00CFF384600F009FF404600F006FF284600F003FF304600F000FF3819404428443044E6
:400380002830C0B2C043C0B200F0F6FE022000F035FDBDE8F08100BF70B50546002903DA494289B2012401E089B20024B1F5806F01D340F2FF3141EA842424B2C4F3072608
:4003C000E4B2FF2000F0D8FEFF2000F0D5FE284600F0D2FE052000F0CFFE032000F0CCFE202000F0C9FE204600F0C6FE304600F0C3FE601930442830C0B2C043C0B200F05F
:40040000BBFE022000F0FAFC70BD00BF08B5002211460620FFF706FF002211460120FFF701FF002211460720FFF7FCFE002211460320FFF7F7FE08BD10B5044601460620D0
:40044000FFF730FF21460120FFF72CFF604201F0F5F909A3D3E9002301F056FA01F066FC04B221460720FFF71DFF21460320FFF719FF10BDAFF3008048E17A14AE47F13F55
:4004800008B50020FFF7D8FF08BD00BF0000000038B505460C4601F02BFD214601F07CFD01F0CAFE04B221460620FFF7FBFE21460120FFF7F7FE684201F0C0F908A3D3E981
:4004C000002301F021FA01F031FC04B221460720FFF7E8FE21460320FFF7E4FE38BD00BF48E17A14AE47F13F08B50249FFF7D0FF08BD00BF000080BF70B504460E46014603
:400500000620FFF7CFFE21460120FFF7CBFE604201F094F90CA3D3E9002301F0F5F904460D46304601F09CF922462B4601F0ECF901F0FCFB04B221460720FFF7B3FE21467C
:400540000320FFF7AFFE70BD48E17A14AE47F13F08B50249FFF7D0FF08BD00BF000080BF08B54042002100B2FFF792FF08BD00BF08B54042002100B2FFF7BEFF08BD00BFB6
:4005800008B5044B1B780122034B1A6000F0BAFE08BD00BF6D6400402881FF1F08B5044B1B780122034B1A6000F02CFF08BD00BF6B6500401C81FF1FF8B504460025460156
:4005C000C70EBB0043EA9673B20092197B4112186B41990141EA92619001021B61EB0503590141EAD261500180185941034A00230019694101F046FEF8BD00BF00366E01D0
:4006000008B500F093FE044B186000F065FE034800F07CFF08BD00BF2081FF1F8105000008B5012000F038FE322000F0FDFB002000F032FE08BD00BF08B500F0BFFE034B29
:400640001868013800F084FE08BD00BF2081FF1F10B500F083FE044600F054FE024B1868001B013810BD00BF2081FF1F08B5FFF7E3FFFFF7D5FF00F007FE18B90B4B1B68E0
:40068000002BF8D0FFF7D8FF00F0FEFD18B1074B1B68002BF8D0FFF7DBFF044B1B6813B9FFF78AFF08BD6FF0004008BD2881FF1F08B500F0BBFE044B186000F08DFE03482E
:4006C00000F04CFF08BD00BF2481FF1F9D05000008B5FFF795FFFFF7EBFF08BD08B5012000F0EEFD322000F09FFB002000F0E8FD08BD00BF08B500F0E1FE034B1868013849
:4007000000F0A6FE08BD00BF2481FF1F10B500F0A5FE044600F076FE024B1868001B013810BD00BF2481FF1F08B5FFF7E3FFFFF7D5FF00F0BDFD18B90B4B1B68002BF8D0C2
:40074000FFF7D8FF00F0B4FD18B1074B1B68002BF8D0FFF7DBFF044B1B6813B9FFF72CFF08BD6FF0004008BD1C81FF1F0022014B1A6070470C81FF1F08B50B4B1B68B3F57F
:40078000806F10D20533B3F5806F02DA064A136003E040F2FF32044B1A607822024B19880120FFF7B9FD08BDCC80FF1F08B50A4B1B68B3F5806F0DD2053B02D4064A136083
:4007C00002E00022044B1A607822034B19880120FFF7A2FD08BD00BFCC80FF1F08B50A4B5B68B3F5C87F0DD8053B02D4064A536002E00022044B5A607822034B9988022005
:40080000FFF78AFD08BD00BFCC80FF1F08B50B4B5B68B3F5C87F10D80533B3F5C87F02DC064A536003E04FF4C872044B5A607822024B99880220FFF76FFD08BDCC80FF1F74
:4008400008B50C4B9B68A3F561727B2A10D80533B3F5806F02DA074A936003E040F2FF32044B9A607822034B19890320FFF754FD08BD00BFCC80FF1F08B50C4B9B68A3F55A
:4008800061727B2A10D8053BB3F5617F02DB074A936003E04FF46172044B9A607822034B19890320FFF738FD08BD00BFCC80FF1F08B50C4BDB68A3F15002B2F5347F10D868
:4008C0000533B3F5487F02DC064AD36003E04FF44872044BDA607822024B99890420FFF71BFD08BDCC80FF1F08B54FF44871054B196196220520FFF70FFD4FF47A7000F09E
:400900007DFA08BDCC80FF1F08B54FF41671054B196196220520FFF7FFFC4FF47A7000F06DFA08BDCC80FF1F08B564224FF4DC710420FFF7F1FC4FF4FA7000F05FFA9622B7
:4009400040F2FE310320FFF7E7FC4FF4FA7000F055FA9622FA210220FFF7DEFC4FF4FA7000F04CFA962240F23A210120FFF7D4FCC82000F043FA96224FF496710220FFF72B
:40098000CBFCC82000F03AFA96224FF461710320FFF7C2FCC82000F031FA9622AA210420FFF7BAFCC82000F029FA96224FF416710520FFF7B1FC4FF4FA6000F01FFA084B2C
:4009C00040F23A221A604FF496725A604FF461729A60AA22DA604FF416721A6108BD00BFCC80FF1F08B500210120FFF7D5FC00210220FFF7D1FC00210320FFF7CDFC0021B0
:400A00000420FFF7C9FC00210520FFF7C5FC08BDFEE700BFF0B40022174611E050F82760F3B226F0FF0608E001EB420511F812406D78A5550132013BDBB2002BF4D1013755
:400A4000202FEBD9F0BC7047064B1B78DBB203F00701054A11701B09013213704422034B1A707047CF0100496E5800407658004008B50A46002101F0FEFD08BD38B50122D9
:400A80002B4B1A8018232B490B7002310A802A4A137019250232158002321370023215800232137002321580023213700222234B1A7008224FF040231A70032103F5007389
:400AC00019701F4B1B78DBB21E490B701E4B1A8041F25122023B1A8000240CE01B4B1B7803F0010343EA440404F003044FF4F07000F042FD013D0DB1032CEFD115B9032063
:400B0000FFF786FF124B4FF480721A8007221A70002210490A704820023108701A700222033B1A700C4A137843F01F03137038BD80400040824000408640004000430040A4
:400B400008010049A146004022420040254200400440004006400040A243004008B501F07FFD08BD38B572B6384A137843F00403137000240CE0364D630019194A001146EB
:400B80002A44084691882858FFF772FF0134E4B2082CF0D900240CE02D48A20011194B000344B3F84020D96B986BFFF7D7FF0134E4B2022CF0D927494FF09040FFF72AFF50
:400BC000254A137843F0020313701032137843F002031370214C237843F040032370A2F58632513A137843F01003137008221C491C48FFF7B3FF0A221B491C48FFF7AEFF47
:400C000008221B491B48FFF7A9FF08221A491B48FFF7A4FF08221A491A48FFF79FFF1A4A137843F008031370184D61232B70FFF725FF81232B700122154B1A70FFF704FF86
:400C40000E2221461348FFF789FF38BDE8460040A82600008400004803500140A0430040700B004802510040780B0048C0510040840B0048125100408C0B004822510040D2
:400C8000940B004832510040224300400048004004000840B0430040FEE700BF08B5104E104D16E029686B68AC68002204E051F8040B43F8040B0432A242F8D1E868002257
:400CC00003E0002143F8041B04328242F9D11035013E002EE6D101F09DFCFFF7D3F9FEE7010000003427000008B5104A104B1A60104A136843F40073136000230AE0032BC3
:400D000003D80D4A52F8231000E00C490C4A42F8231001332F2BF2D90A4B1A780A4B1A70074A0A4B1A60FFF71DFF08BD0004FA050CED00E014ED00E000000000990C000094
:400D40000080FF1FBC760040C080FF1F08ED00E07222074B1A70202203331A700622A0331A70472210331A7000224D331A7070478464004010B500F007FC04460A4A137817
:400D800043F0200313700332137843F010031370FD32137843F01003137000F021F8204600F0F6FB10BD00BF9464004008B5054B1B7823B9FFF7CCFF0122024B1A70FFF70D
:400DC000D9FF08BD1081FF1F034B1B7813F0040FFAD1024B187070476465004044650040054A137843F0040313701032137843F004031370704700BFA243004010B504469C
:400E000005E0084B186800F0B7FBA4F50044B4F5004FF6D8034B586800FB04F000F0ACFB10BD00BFE080FF1F08B5034B1B7A00FB03F000F0A1FB08BDE080FF1F10B50B4C9E
:400E4000237803F09F032370237803F0F00323702378184340F0100020700120FFF7E4FF237803F0EF03237010BD00BF2051004038B505460E4C237843F0200323702378DA
:400E800003F0BF0323700020FFF7CEFF237803F0F003237023781D4345F0100525700120FFF7C2FF237803F0EF03237038BD00BF2051004070B5354B1A7802F08002D2B29A
:400EC0001A7033490A7802F0F00242F00F020A7001310A7802F0F0020A7001310A7802F0F0020A701A7802F0DF021A701A7842F040021A704FF4CA760020FFF795FF234D89
:400F00002B7843F010032B700120FFF78DFF214B1C78E4B22B7803F0EF032B700020FFF783FF04F00804E4B22B7843F010032B700120FFF779FF2B7803F0EF032B7014B9A0
:400F40000A20FFF771FF013E0CB1002ED4D10F4A137803F0BF031370137803F08003DBB213700232137803F0F00313700132137803F0F00343F00F0313700132137803F0A0
:400F8000F00343F00F03137070BD00BF20510040225100402151004010B50446FFF78AFF2009FFF765FF04F00F00FFF761FF10BD38B505460078012404E0FFF7EDFF285D1D
:400FC0000134E4B20028F8D138BD00BF08B5FFF7E3FF08BD10B50446FFF76CFF2009FFF72DFF04F00F00FFF729FF10BD08B52820FFF704FF0320FFF721FF0520FFF7FEFE30
:401000000320FFF71BFF0F20FFF7F8FE0320FFF715FF0120FFF7F2FE0220FFF70FFF0520FFF7ECFE0620FFF7D5FF0E20FFF7D2FF2C20FFF7CFFF0820FFF7CCFF0120FFF70E
:40104000C9FF0C20FFF7C6FF0320FFF7C3FF0520FFF7D4FE08BD00BF08B50C20FFF7BAFF0122014B1A7008BD1281FF1F08B5054B5B7823B9FFF7BAFF0122024B5A70FFF7D3
:40108000EBFF08BD1281FF1F08B5032819D8DFE800F002070D1381F08000FFF79BFF08BDA1F14000C0B2FFF795FF08BDA1F16C00C0B2FFF78FFF08BDA1F12C00C0B2FFF75F
:4010C00089FF08BD38B504460309054DE85CFFF77DFF04F00F04285DFFF778FF38BD00BF0027000038B50546202406E0083CE4B225FA04F0C0B2FFF7E5FF002CF6D138BD01
:401100007222074B1A70202201331A700622593B1A70472210331A70002252331A7070478164004010B500F02FFA04460A4A137843F0200313700132137843F0100313704F
:401140000932137843F01003137000F021F8204600F01EFA10BD00BF9164004008B5054B1B7823B9FFF7CCFF0122024B1A70FFF7D9FF08BD1481FF1F034B1B7813F0040F34
:40118000FAD1024B187070476B64004048640040054A137843F0100313701032137843F010031370704700BFA24300407222084B1A70202201331A700622A3F261131A70DD
:4011C000472210331A70002251331A70704700BF8565004010B500F0D7F904460A4A137843F0200313700132137843F010031370A2F58072137843F01003137000F036F8E0
:40120000204600F0C5F910BD9565004008B5054B1B7823B9FFF7CAFF0122024B1A70FFF7D9FF08BD1681FF1F084B1B78DBB213F0200F06D0064A1078C0B213F01E0F02D14E
:401240007047002070470020704700BF6665004046650040044B1B7813F0200F01D0012070470020704700BF66650040054A137843F0080313701032137843F008031370CD
:40128000704700BFA2430040024B1878C0F30010704700BF31510040044A137803F0DF03400100F0200018431070704730510040024B1878C0F38010704700BF3151004011
:4012C000044A137803F07F03C001C0B218431070704700BF30510040054A137843F0020313701032137843F002031370704700BFA2430040024A137843F0800313707047DC
:401300007C640040024A137803F07F03137070477C640040014B1870704700BF8D640040014B1878704700BF6D640040014B1868704700BF2A640040014B1860704700BFBF
:401340002A640040014B1868704700BF4A640040014B1860704700BF0A640040024B1B78024B1868704700BF0A6400404A64004008B501E0FFF7E6FFFFF7D2FF10F0080F71
:40138000F8D108BD10B50B4C2046FFF7D5FF2046FFF7DEFF00F0F8F8074A137843F01003137000F0F5F8FFF7E3FF0120FFF7B2FF10BD00BF9E8601009D64004008B5054B19
:4013C0001B7823B9FFF7DEFF0122024B1A70FFF791FF08BD1881FF1F054A137843F0010313701032137843F001031370704700BFA2430040024A137843F080031370704732
:401400007B650040024A137803F07F03137070477B650040014B1870704700BF8B650040014B1878704700BF6B650040014B1868704700BF28650040014B1860704700BFC1
:4014400028650040014B1868704700BF48650040014B1860704700BF08650040024B1B78024B1868704700BF086500404865004008B501E0FFF7E6FFFFF7D2FF10F0080F75
:40148000F8D108BD10B50B4C2046FFF7D5FF2046FFF7DEFF00F078F8074A137843F01003137000F075F8FFF7E3FF0120FFF7B2FF10BD00BF9E8601009B65004008B5054B19
:4014C0001B7823B9FFF7DEFF0122024B1A70FFF791FF08BD1981FF1F014B1B681864704708ED00E04001C0B2014B1870704700BF00E400E00122014B1A60704700E100E0B4
:401500000122014B1A60704780E100E010B50446FFF7F6FF2046FFF7DFFF0720FFF7E2FFFFF7E8FF10BD00BF014B1B685864704708ED00E04001C0B2014B1870704700BF1B
:4015400001E400E00222014B1A60704700E100E00222014B1A60704780E100E010B50446FFF7F6FF2046FFF7DFFF0720FFF7E2FFFFF7E8FF10BD00BF0230800803D000BF7B
:4015800001380046FCD17047EFF3108072B6704780F31088704700BF81F0004102E000BF83F0004330B54FEA41044FEA430594EA050F08BF90EA020F1FBF54EA000C55EA1E
:4015C000020C7FEA645C7FEA655C00F0E2804FEA5454D4EB5555B8BF6D420CDD2C4480EA020281EA030382EA000083EA010180EA020281EA0303362D88BF30BD11F0004FEF
:401600004FEA01314FF4801C4CEA113102D0404261EB410113F0004F4FEA03334CEA133302D0524263EB430394EA050F00F0A780A4F10104D5F1200E0DDB02FA0EFC22FA8E
:4016400005F2801841F1000103FA0EF2801843FA05F359410EE0A5F120050EF1200E012A03FA0EFC28BF4CF0020C43FA05F3C01851EBE37101F0004507D54FF0000EDCF142
:40168000000C7EEB00006EEB0101B1F5801F1BD3B1F5001F0CD349085FEA30004FEA3C0C04F101044FEA445212F5800F80F09A80BCF1004F08BF5FEA500C50F1000041EB7A
:4016C000045141EA050130BD5FEA4C0C404141EB010111F4801FA4F10104E9D191F0000F04BF01460020B1FA81F308BF2033A3F10B03B3F120020CDA0C3208DD02F1140CB8
:40170000C2F10C0201FA0CF021FA02F10CE002F11402D8BFC2F1200C01FA02F120FA0CFCDCBF41EA0C019040E41AA2BF01EB0451294330BD6FEA04041F3C1CDA0C340EDCF0
:4017400004F11404C4F1200220FA04F001FA02F340EA030021FA04F345EA030130BDC4F10C04C4F1200220FA02F001FA04F340EA0300294630BD21FA04F0294630BD94F016
:40178000000F83F4801306BF81F480110134013D4EE77FEA645C18BF7FEA655C29D094EA050F08BF90EA020F05D054EA000C04BF1946104630BD91EA030F1EBF0021002067
:4017C00030BD5FEA545C05D14000494128BF41F0004130BD14F580043CBF01F5801130BD01F0004545F0FE4141F470014FF0000030BD7FEA645C1ABF194610467FEA655CC4
:401800001CBF0B46024650EA013406BF52EA033591EA030F41F4002130BD00BF90F0000F04BF0021704730B54FF4806404F132044FF000054FF0000150E700BF90F0000F93
:4018400004BF0021704730B54FF4806404F1320410F0004548BF40424FF000013EE700BF42004FEAE2014FEA31014FEA02701FBF12F07F4393F07F4F81F06051704792F0E2
:40188000000F14BF93F07F4F704730B54FF4607401F0004521F0004120E700BF50EA010208BF704730B54FF000050AE050EA010208BF704730B511F0004502D5404261EB9B
:4018C00041014FF4806404F132045FEA915C3FF4DCAE4FF003025FEADC0C18BF03325FEADC0C18BF033202EBDC02C2F1200300FA03FC20FA02F001FA03FE40EA0E0021FAAE
:4019000002F11444C1E600BF70B54FF0FF0C4CF4E06C1CEA11541DBF1CEA135594EA0C0F95EA0C0F00F0DEF82C4481EA030621EA4C5123EA4C5350EA013518BF52EA03355A
:4019400041F4801143F4801338D0A0FB02CE4FF00005E1FB02E506F00042E0FB03E54FF00006E1FB03569CF0000F18BF4EF0010EA4F1FF04B6F5007F64F5407404D25FEA3B
:401980004E0E6D4146EB060642EAC62141EA55514FEAC52040EA5E504FEACE2EB4F1FD0C88BFBCF5E06F1ED8BEF1004F08BF5FEA500E50F1000041EB045170BD06F000464F
:4019C00046EA010140EA020081EA0301B4EB5C04C2BFD4EB0C0541EA045170BD41F480114FF0000E013C00F3AB8014F1360FDEBF002001F0004170BDC4F10004203C35DA25
:401A00000C341BDC04F11404C4F1200500FA05F320FA04F001FA05F240EA020001F0004221F0004110EBD37021FA04F642EB06015EEA430E08BF20EAD37070BDC4F10C04BF
:401A4000C4F1200500FA04F320FA05F001FA04F240EA020001F0004110EBD37041F100015EEA430E08BF20EAD37070BDC4F1200500FA05F24EEA020E20FA04F301FA05F2DC
:401A800043EA020321FA04F001F0004121FA04F220EA020000EBD3705EEA430E08BF20EAD37070BD94F0000F0FD101F00046400041EB010111F4801F08BF013CF7D041EADC
:401AC000060195F0000F18BF704703F00046520043EB030313F4801F08BF013DF7D043EA0603704794EA0C0F0CEA135518BF95EA0C0F0CD050EA410618BF52EA4306D1D1DC
:401B000081EA030101F000414FF0000070BD50EA410606BF1046194652EA430619D094EA0C0F02D150EA013613D195EA0C0F05D152EA03361CBF104619460AD181EA0301AF
:401B400001F0004141F0FE4141F470014FF0000070BD41F0FE4141F4780170BD70B54FF0FF0C4CF4E06C1CEA11541DBF1CEA135594EA0C0F95EA0C0F00F0A7F8A4EB05045C
:401B800081EA030E52EA03354FEA013100F088804FEA03334FF0805545EA131343EA12634FEA022245EA111545EA10654FEA00260EF000419D4208BF964244F1FD0404F5B7
:401BC000407402D25B084FEA3202B61A65EB03055B084FEA32024FF480104FF4002CB6EB020E75EB030E22BFB61A754640EA0C005B084FEA3202B6EB020E75EB030E22BFBC
:401C0000B61A754640EA5C005B084FEA3202B6EB020E75EB030E22BFB61A754640EA9C005B084FEA3202B6EB020E75EB030E22BFB61A754640EADC0055EA060E18D04FEA97
:401C4000051545EA16754FEA06164FEAC30343EA52734FEAC2025FEA1C1CC0D111F4801F0BD141EA00014FF000004FF0004CB6E711F4801F04BF01430020B4F1FD0C88BF68
:401C8000BCF5E06F3FF6AFAEB5EB030C04BFB6EB020C5FEA500C50F1000041EB045170BD0EF0004E4EEA113114EB5C04C2BFD4EB0C0541EA045170BD41F480114FF0000EA7
:401CC000013C90E645EA060E8DE60CEA135594EA0C0F08BF95EA0C0F3FF43BAF94EA0C0F0AD150EA01347FF434AF95EA0C0F7FF425AF104619462CE795EA0C0F06D152EA77
:401D000003353FF4FDAE1046194622E750EA410618BF52EA43067FF4C5AE50EA41047FF40DAF52EA43057FF4EBAE12E74FEA410212F5001215D211D56FF47873B3EB6252D3
:401D400012D94FEAC12343F0004343EA505311F0004F23FA02F018BF404270474FF00000704750EA013005D111F0004008BF6FF0004070474FF00000704700BF80F00040AC
:401D800002E000BF81F0004142001FBF5FEA410392EA030F7FEA226C7FEA236C6AD04FEA1262D2EB1363C1BFD218414048404140B8BF5B42192B88BF704710F0004F40F4BF
:401DC000000020F07F4018BF404211F0004F41F4000121F07F4118BF494292EA030F3FD0A2F1010241FA03FC10EB0C00C3F1200301FA03F100F0004302D5494260EB4000A8
:401E0000B0F5000F13D3B0F1807F06D340084FEA310102F10102FE2A51D2B1F1004F40EBC25008BF20F0010040EA03007047490040EB000010F4000FA2F10102EDD1B0FA2C
:401E400080FCACF1080CB2EB0C0200FA0CF0AABF00EBC25052421843BCBFD0401843704792F0000F81F4000106BF80F400000132013BB5E74FEA41037FEA226C18BF7FEAA3
:401E8000236C21D092EA030F04D092F0000F08BF0846704790EA010F1CBF0020704712F07F4F04D1400028BF40F00040704712F100723CBF00F50000704700F0004343F032
:401EC000FE4040F4000070477FEA226216BF08467FEA23630146420206BF5FEA412390EA010F40F4800070474FF0000304E000BF10F0004348BF40425FEA000C08BF704744
:401F000043F0964301464FF000001CE050EA010208BF70474FF000030AE000BF50EA010208BF704711F0004302D5404261EB41015FEA010C02BF84460146002043F0B64313
:401F400008BFA3F18053A3F50003BCFA8CF2083AA3EBC25310DB01FA02FC634400FA02FCC2F12002BCF1004F20FA02F243EB020008BF20F00100704702F1200201FA02FC50
:401F8000C2F1200250EA4C0021FA02F243EB020008BF20EADC7070474FF0FF0C1CEAD0521EBF1CEAD15392EA0C0F93EA0C0F6FD01A4480EA010C400218BF5FEA41211ED045
:401FC0004FF0006343EA501043EA5111A0FB01310CF00040B1F5000F3EBF490041EAD3715B0040EA010062F17F02FD2A1DD8B3F1004F40EBC25008BF20F00100704790F0FB
:40200000000F0CF0004C08BF49024CEA502040EA51207F3AC2BFD2F1FF0340EAC250704740F400004FF00003013A5DDC12F1190FDCBF00F000407047C2F10002410021FA5C
:4020400002F1C2F1200200FA02FC5FEA310040F1000053EA4C0308BF20EADC70704792F0000F00F0004C02BF400010F4000F013AF9D040EA0C0093F0000F01F0004C02BFEA
:40208000490011F4000F013BF9D041EA0C018FE70CEAD15392EA0C0F18BF93EA0C0F0AD030F0004C18BF31F0004CD8D180EA010000F00040704790F0000F17BF90F0004F37
:4020C000084691F0000F91F0004F14D092EA0C0F01D142020FD193EA0C0F03D14B0218BF084608D180EA010000F0004040F0FE4040F40000704740F0FE4040F4400070477D
:402100004FF0FF0C1CEAD0521EBF1CEAD15392EA0C0F93EA0C0F69D0A2EB030280EA010C49024FEA402037D04FF0805343EA111143EA10130CF000408B4238BF5B0042F18B
:402140007D024FF4000C8B4224BF5B1A40EA0C00B3EB510F24BFA3EB510340EA5C00B3EB910F24BFA3EB910340EA9C00B3EBD10F24BFA3EBD10340EADC001B0118BF5FEADF
:402180001C1CE0D1FD2A3FF650AF8B4240EBC25008BF20F0010070470CF0004C4CEA50207F32C2BFD2F1FF0340EAC250704740F400004FF00003013A37E792F0000F00F01A
:4021C000004C02BF400010F4000F013AF9D040EA0C0093F0000F01F0004C02BF490011F4000F013BF9D041EA0C0195E70CEAD15392EA0C0F08D142027FF47DAF93EA0C0F9A
:402200007FF470AF084676E793EA0C0F04D14B023FF44CAF08466EE730F0004C18BF31F0004CCAD130F000427FF45CAF31F000437FF43CAF5FE700BF4FEA4002B2F1FE4F79
:402240000FD34FF09E03B3EB12620DD94FEA002343F0004310F0004F23FA02F018BF404270474FF00000704712F1610F01D1420205D110F0004008BF6FF0004070474FF073
:40228000000070477BB972B90029BEBF00204FF0004106E008BF00281CBF6FF000414FF0FF3000F0B5B9ADF1080C6DE904CE002909DB002B1ADB00F035F8DDF804E0DDE903
:4022C000022304B07047404261EB4101002B1BDB00F028F8DDF804E0DDE9022304B0404261EB4101524263EB43037047524263EB430300F017F8DDF804E0DDE9022304B047
:40230000404261EB41017047524263EB430300F009F8DDF804E0DDE9022304B0524263EB430370472DE9F04F8C460C460546099E002B4FD18A4217466BD9B2FA82FEBEF188
:40234000000F0BD0CEF1200520FA05F501FA0EF345EA030C02FA0EF700FA0EF5390CBCFBF1F0BAB201FB10C300FB02F84FEA154C4CEA0344A04509D9E41900F1FF3380F0C8
:402380002881A04540F2258102383C44C8EB0404B4FBF1F301FB134C03FB02F2ACB244EA0C418A4209D9C91903F1FF3480F00F818A4240F20C81023B39448A1A43EA00407C
:4023C0000021002E63D022FA0EF2002386E80C00BDE8F08F8B4207D9002E56D0002186E811000846BDE8F08FB3FA83F1002940F09380A34202D3824200F2FE80851A64EB02
:4024000003039C460120002E41D086E82010BDE8F08F12B90127B7FBF2F7B7FA87FEBEF1000F36D1E41B4FEA17481FFA87F90121B4FBF8F308FB134409FB03F24FEA154C30
:402440004CEA0444A24207D9E41903F1FF3002D2A24200F2D3800346A41AB4FBF8F008FB104809FB00F9ACB244EA0842914507D9D21900F1FF3402D2914500F2BA80204630
:40248000C9EB020240EA03409BE731463046BDE8F08F07FA0EF7CEF1200C24FA0CF34FEA1748B3FBF8FA1FFA87F908FB1A3520FA0CFC04FA0EF40AFB09FB4CEA040C4FEA89
:4024C0001C4242EA05439B4500FA0EF50AD9DB190AF1FF3280F08B809B4540F28880AAF1020A3B44CBEB0303B3FBF8F008FB103300FB09F41FFA8CFC4CEA03439C4207D904
:40250000DB1900F1FF326ED29C426CD902383B441C1B40EA0A418BE7C1F1200E8B4022FA0EFC4CEA030C24FA0EF74FEA1C49B7FBF9FA1FFA8CF309FB1A7720FA0EF88C40B6
:402540000AFB03F548EA04044FEA144848EA0747BD4202FA01F200FA01FB09D917EB0C070AF1FF3041D2BD423FD9AAF1020A67447F1BB7FBF9F509FB157705FB03F3A4B278
:4025800044EA0747BB4208D917EB0C0705F1FF3027D2BB4225D9023D674445EA0A40A0FB0289FF1A4F4545464C4614D329D066B3BBEB050367EB040707FA0EFECB40CF4015
:4025C0004EEA030386E888000021BDE8F08F2346F3E61846DAE6B8EB020569EB0C040138E5E70546D9E7104692E78246C0E7924678E702383A4443E7084604E7023B3C4497
:402600002AE7C345E7D33C46D1E73146BDE8F08F704700BF0E4B70B51E460E4C0025E41AA410A54204D056F8253098470135F8E700F06EF8084B094C1E46E41AA4100025DE
:40264000A54204D056F8253098470135F8E770BD1C2700001C2700001C2700002427000010B5431E0A44914204D011F8014B03F8014FF8E710BD03460244934202D003F82F
:40268000011BFAE7704700000000000098FCFF7F010000002020202020202020202020202020202000000000405100403000F0510040100000000140000480040140800B2C
:4026C00000140140000280160140800500400140000A004C01400002005001402000000060520040680A0048060000040140700A0048800000160140F00A0048800000000A
:4027000030313233343536373839414243444546F8B500BFF8BC08BC9E4670474D000000E90C0000F8B500BFF8BC08BC9E4670472900000048270000C880FF1F2800000091
:402740004000000000000000000000003A0200002C01000084030000AA000000580200000000E02EC05D00001800000000366E01000000000000000000000000000000003D
:402780000000000000000000000000000000000000000000000000000000000000000000000000000000000000000000000000000000000000000000000000000000000019
:4027C00000000000000000000000000000000000000000000000000000000000000000000000000000000000000000000000000000000000000000000000000000000000D9
:402800000000000000000000000000000000000000000000000000000000000000000000000000000000000000000000000000000000000000000000000000000000000098
:402840000000000000000000000000000000000000000000000000000000000000000000000000000000000000000000000000000000000000000000000000000000000058
:020000040003F7
:0200000480007A
:40000000015200400764004004650040400001402F0101405902014049030140150401403A0501405306014039070140400801402B0901402E0A0140140B0140350C014070
:40004000140D0140571401404C1501402F1601403C170140521801402D190140321A0140181B014003400140074101400A42014004430140024801400949014008500140AA
:40008000015101400403817282388472860F87388B0F8D0D840F857286388B0D09010D0315031B031D02270329032F0331033A803B80580459045C245F0180FF8110840CC2
:4000C000851888F3895C8A0C8B218C088D7C8F02900C910492F3940F950896F098829B049EE39F23A0C3A380A404A567A718AB80AC41AD7FB0C0B11FB22CB340B40FB580D5
:40010000B610B738B880BA28BB02BF14D602D711D804D904DB04DC44DD40DF010402062807010C400E180F4015021744180219801E101F61214022012450252026802924EB
:400140002B022D802E082F683080321834C23610370439913B023C483E123F405C10600861206D686F10740476227705C0F0C2F0C4B0CAFECCFECEFCD6200021024E050238
:4001800009020F01104012B018821A491F0124E328E32D0230E0310232043403361837013E403F404024410342054401460C470E481449FF4AFF4BFF4C624DA04EF04F4106
:4001C000500C5418580459045A045B045C445D445F016640670269106A306B106D106E106F1281088406850C860188018A068B338C078D7F90069201934094029573970C29
:40020000994C9B239D02A141A380A503A601A806A904AC04AD4FAF10B007B180B30FB57CBA02BB28D804D904DC22DF010048020805040610074008040A400D010E88121578
:400240001620171019021A401B021D801EA82008221A25012702284429102B122D403080321A35803680384839803A173D283E203F8044804581460847084D8057485801CB
:400280005B025D01640991C192029512962098089A089B189C829D249F40A114A280A480A61CA70AA980AB08C017C25CC467CA1FCC1FCE7FD0F0D210D680D830E6029C0110
:4002C000B201BE04C003C704C9FFCA07CBFFCC40CD20CEF0CF05D008D804DA04DD03DF01E040E1A8E240E32003040A440D8010221110180119241A541B101E2020022266E1
:400300002956321A384839803B2040414210450848014A0851045310540856405A0868226B04700471507202808082408A1091909222940899029D349E02A208A480A71097
:40034000A802AB40AC40AD10C002C28AC407CA0FCC07CE0ED04BD20CD602E28102A0068008140CF00E0C12031410205C210222822409261028EC2A112D01301F31013260E1
:400380003480350238083E143F114014410246CE470B481C49FF4AFF4BFF4EF04F44500C5401580459045A045B045C035D335F0166C06A406B0280208205841386048701E0
:4003C0008A088B108C138D028E0C8F2C9138930699029B1C9F01A403A604AB38AC0AAE14AF06B00FB11EB430B534B701B820BA02BB22BF40D418D804D904DB04DC33DD2085
:40040000DF010120024103140480066507200C080E400F101020120215221714188019201D181E40211122822501270829202A402D012E402F8032423310388039083B109C
:40044000464147105420562457805A025C405D015F2862A0910892829A40A008A220A589A901C0FFC230C475CA9CCC0DCE0ED0B0D6F1D80C000902100C1C0E020F01120389
:400480001301170118101C0C1D011E1120102101220C2814301F31013F0140464101460C47EB483449FF4AFF4BFF4EF04F44500C580459045A045C045D045F0166C06A401E
:4004C0006B02870191029D03A103B703B980BF40C001C504C9FFCA07CBFFCC40CD20CEF0CF05D008D904DA04DD04DF01E040E1A8E240E320050207010C800E400F04148014
:4005000016081E402001244028802B802F8030803102328033013688374138083F804001448047404B044C045004520856495740944096409E41AE40AF10C090C2D0C4507F
:40054000CA81CCD9CE12D098D220404649FF4AFF4BFF4F0150185A045D015F016040624064406540668068806A806C806E809001AC02B001B402BE11C046C9FFCAFFCBFF29
:40058000CD83CE03CF01D018D401D804DA04DB04DD41DF01E040E240E440E540E680E880EA80EC80EE800E40140216011D021E044280468048084C085C425E045F1081027F
:4005C0009A80A008C210C480D081D224D6F0404649FF4AFF4BFF4D834E034F01501852805A045B045D115F016040624064406540668068806A806C806E808201AA01B6017D
:40060000BE40C046C5ECC702C813C9FFCAFFCBFFCD83CE03CF01D018D401D604D804DA04DB04DD11DF01E040E240E440E540E680E880EA80EC80EE80000210081940428045
:400640004680480849054C08500859456340740176808740C008C402D081D224D60BD801020804130502060C0B020F02140A1614170220032204241325012604282029026C
:400680002A0530303301340F370238023A203F444023410645EB460C470E481749FF4AFF4BFF4EF04F44500C5401580459045A045B045C025D225F0166C06A406B0281082E
:4006C000850489408DF38F0C900191FF92069424954D961197929877994F9BA09C129E29A340A477A7B2A90CAC40B007B101B230B38CB440B57CB608B70EBB28BF01D6021E
:40070000D713D804D904DB04DC33DD30DF01000401020A100D080E451088121015401704180419021D281E401F58224424082615270129202A142E202F503008340836162E
:4007400038A43C203E0A3F8040044104492550C0520459015A885B105E026D406E046F0474207580762A841086018C808F10902091089210940C964199209C089D869E20B5
:400780009F01A008A202A340A420A520A610A708AB48C00CC2F4C4AECAE6CCE2CEFED006D204D68FE6808110824C843185108646870C891C8B02946C9514960398319A0E07
:4007C0009F03A109A208A310A90CAA13AB11B030B20FB44AB71FB802BA28BE01C004C540C9FFCA07CBFFCC40CD20CEF0CF05D008D804D904DA04DC22DD02DF01E040E1A8C6
:40080000E240E320000401020408064007080A140E0A0F201088140816081701186019201A141D401E081F042180260B270A29222C202D802E012F08318436123708382412
:400840003B013D013E6840404520470948804B014E0A50085104564057105F02654067088521A580A840A910C07CC2E6C45ACAF5CCEACEF7D0E1D230D680D83000030204D6
:40088000060507020C030D060E0C0F01100A120417011E081F032003220423052F06360F37073A803B80401349FF4AFF4BFF4F015018580459045A045C445F01604062406B
:4008C00064406540668068806A806C806E8080018703910C920193039D019F0EA001A101A306A70CA802AB08B003B10FB203B603B88ABB02C013C9FFCAFFCBFFCD83CE03D6
:40090000CF01D018D804D904DA04DC44DF01E040E240E440E540E680E880EA80EC80EE80038004080540064009020E010F4012881701198A1A011D401F80210223402680B0
:40094000270129082B842D802F8031023280368838083F4C4220434046204740900893049A409D02A208A502A680A780C0B8C298C41ACA97CC59CE52D05A401349FF4AFF29
:400980004BFF4D834E034F0150185A045F016040624064406540668068806A806C806E808601AE01B001BE01C013C5ECC620C80BC9FFCAFFCBFFCD83CE03CF01D018D280D0
:4009C000D401D604D804DA04DB04DF01E040E240E440E540E680E880EA80EC80EE80062017401E8042204340462047404D044F0156205D045E805F01678077408B409E2068
:400A00009F40C020C480D05AD6D0D880E68030103580CC300380040884109C109D80C030E64050405708804089029D80A804AF80D460E280EC9099029D80AB08EE8099027A
:400A40009D80124075028640898099029D80C410DE20E010001E08140A0C0C120E02101D1A0C1C11000F0000060A00000100000000000000000C0000E7000020001F0000F7
:400A800044002A200013000C021E150100000000001C0003E700000221044A0080080000600180100720180E0002000000004014630405000100E00C18FFFFFF62A0F0411F
:400AC0000C00000000000212040404042222000100000000000040020010301000101012000000000000000000000000000000000000040F003C020302300000000F0040E8
:400B0000003F0000000F01300030040F020000000005018000100000000A028000200000000004C0023C01032000002200004404320504000600CE000CFFFFFF62A0F041D4
:400B40000C000000180000000404040433330001000000000000400200103010001010120000000000000000000000000000000003000000000000000E00010E0E000E00DA
:400B800000000000000B0B0000000000007F7F000000000050A0A0000000000000000000000000000000000000000000000000000000000000000000000000000000000091
:400BC00000000000000000000000000000000000000000000000000000000000000000000000000000000000000000000000000000000000000000000000000000000000F5
:400C000000000000000000000000000000000000000000000000000000000000000000000000000000000000000000000000000000000000000000000000000000000000B4
:400C40000000000000000000000000000000000000000000000000000000000000000000000000000000000000000000000000000000000000000000000000000000000074
:400C80000000000000000000000000000000000000000000000000000000000000000000000000000000000000000000000000000000000000000000000000000000000034
:0200000490006A
:0400000000004005B7
:0200000490105A
:04000000BC90ACAF55
:0200000490303A
:02000000D51E0B
:0200000490402A
:4000000000000000000000000000000000000000000000000000000000000000000000000000000000000000000000000000000000000000000000000000000000000000C0
:400040000000000000000000000000000000000000000000000000000000000000000000000000000000000000000000000000000000000000000000000000000000000080
:400080000000000000000000000000000000000000000000000000000000000000000000000000000000000000000000000000000000000000000000000000000000000040
:4000C0000000000000000000000000000000000000000000000000000000000000000000000000000000000000000000000000000000000000000000000000000000000000
:0200000490501A
:0C00000000012E12306900012E26058739
:00000001FF