:020000040800F2
:1000000000C0002045340008510F0008530F0008BD
:10001000550F0008570F0008590F00080000000096
:100020000000000000000000000000005B0F00085E
:100030005D0F0008000000005F0F0008610F00085E
:100040008D3400088D3400088D3400088D3400088C
:100050008D3400088D3400088D3400088D3400087C
:100060008D3400088D3400088D3400088D3400086C
:100070008D3400088D3400088D3400088D3400085C
:10008000690F00088D3400088D3400088D34000895
:100090008D3400088D3400088D3400088D3400083C
:1000A0008D3400088D3400088D3400088D3400082C
:1000B0008D3400088D3400088D3400088D3400081C
:1000C0008D3400088D3400088D3400088D3400080C
:1000D0008D3400088D340008790F00088D34000835
:1000E0008D3400088D3400088D3400088D340008EC
:1000F0008D3400088D3400088D3400088D340008DC
:100100008D3400088D3400088D3400088D340008CB
:100110008D3400088D3400088D3400088D340008BB
:100120008D3400088D3400088D3400088D340008AB
:1001300000000000000000000000000000000000BF
:1001400000000000000000000000000000000000AF
:10015000000000000000000000000000000000009F
:10016000000000000000000000000000000000008F
:10017000000000000000000000000000000000007F
:10018000000000000000000000000000000000006F
:10019000000000000000000000000000000000005F
:1001A000000000000000000000000000000000004F
:1001B000000000000000000000000000000000003F
:1001C000000000000000000000000000000000002F
:1001D000000000000000000000000000000000001F
:0401E0005FF8E0F1F3
:1001E80010B5054C237833B9044B13B10448AFF369
:1001F80000800123237010BD2000002000000000B3
:10020800E834000808B5034B1BB103490348AFF3B2
:10021800008008BD0000000024000020E834000829
:1002280070B54FF0FF0C4CF4E06C1CEA11541DBF84
:100238001CEA135594EA0C0F95EA0C0F00F0DEF84F
:100248002C4481EA030621EA4C5123EA4C5350EA34
:10025800013518BF52EA033541F4801143F4801385
:1002680038D0A0FB02CE4FF00005E1FB02E506F016
:100278000042E0FB03E54FF00006E1FB03569CF06B
:10028800000F18BF4EF0010EA4F1FF04B6F5007F71
:1002980064F5407404D25FEA4E0E6D4146EB0606E3
:1002A80042EAC62141EA55514FEAC52040EA5E506C
:1002B8004FEACE2EB4F1FD0C88BFBCF5E06F1ED816
:1002C800BEF1004F08BF5FEA500E50F1000041EB4D
:1002D800045170BD06F0004646EA010140EA0200FA
:1002E80081EA0301B4EB5C04C2BFD4EB0C0541EA1C
:1002F800045170BD41F480114FF0000E013C00F331
:10030800AB8014F1360FDEBF002001F0004170BD54
:10031800C4F10004203C35DA0C341BDC04F114046D
:10032800C4F1200500FA05F320FA04F001FA05F2F9
:1003380040EA020001F0004221F0004110EBD370C6
:1003480021FA04F642EB06015EEA430E08BF20EAF2
:10035800D37070BDC4F10C04C4F1200500FA04F395
:1003680020FA05F001FA04F240EA020001F0004127
:1003780010EBD37041F100015EEA430E08BF20EA9A
:10038800D37070BDC4F1200500FA05F24EEA020EE2
:1003980020FA04F301FA05F243EA020321FA04F011
:1003A80001F0004121FA04F220EA020000EBD370C8
:1003B8005EEA430E08BF20EAD37070BD94F0000FC8
:1003C8000FD101F00046400041EB010111F4801FFC
:1003D80008BF013CF7D041EA060195F0000F18BFAD
:1003E800704703F00046520043EB030313F4801FE9
:1003F80008BF013DF7D043EA0603704794EA0C0FA3
:100408000CEA135518BF95EA0C0F0CD050EA4106B8
:1004180018BF52EA4306D1D181EA030101F0004135
:100428004FF0000070BD50EA410606BF104619465D
:1004380052EA430619D094EA0C0F02D150EA013669
:1004480013D195EA0C0F05D152EA03361CBF1046AA
:1004580019460AD181EA030101F0004141F0FE4149
:1004680041F470014FF0000070BD41F0FE4141F4CD
:10047800780170BD4FF0FF0C1CEAD0521EBF1CEA79
:10048800D15392EA0C0F93EA0C0F6FD01A4480EA0A
:10049800010C400218BF5FEA41211ED04FF00063F3
:1004A80043EA501043EA5111A0FB01310CF000401F
:1004B800B1F5000F3EBF490041EAD3715B0040EA45
:1004C800010062F17F02FD2A1DD8B3F1004F40EB15
:1004D800C25008BF20F00100704790F0000F0CF0E8
:1004E800004C08BF49024CEA502040EA51207F3AAC
:1004F800C2BFD2F1FF0340EAC250704740F4000087
:100508004FF00003013A5DDC12F1190FDCBF00F077
:1005180000407047C2F10002410021FA02F1C2F125
:10052800200200FA02FC5FEA310040F1000053EAC1
:100538004C0308BF20EADC70704792F0000F00F00F
:10054800004C02BF400010F4000F013AF9D040EA15
:100558000C0093F0000F01F0004C02BF490011F4A9
:10056800000F013BF9D041EA0C018FE70CEAD153A7
:1005780092EA0C0F18BF93EA0C0F0AD030F0004C27
:1005880018BF31F0004CD8D180EA010000F00040DB
:10059800704790F0000F17BF90F0004F084691F099
:1005A800000F91F0004F14D092EA0C0F01D14202D3
:1005B8000FD193EA0C0F03D14B0218BF084608D19C
:1005C80080EA010000F0004040F0FE4040F40000E6
:1005D800704740F0FE4040F44000704781F0004111
:1005E80002E000BF83F0004330B54FEA41044FEA10
:1005F800430594EA050F08BF90EA020F1FBF54EAAB
:10060800000C55EA020C7FEA645C7FEA655C00F046
:10061800E2804FEA5454D4EB5555B8BF6D420CDD17
:100628002C4480EA020281EA030382EA000083EA9A
:10063800010180EA020281EA0303362D88BF30BD3A
:1006480011F0004F4FEA01314FF4801C4CEA113190
:1006580002D0404261EB410113F0004F4FEA0333EF
:100668004CEA133302D0524263EB430394EA050F7A
:1006780000F0A780A4F10104D5F1200E0DDB02FAE9
:100688000EFC22FA05F2801841F1000103FA0EF27D
:10069800801843FA05F359410EE0A5F120050EF143
:1006A800200E012A03FA0EFC28BF4CF0020C43FA74
:1006B80005F3C01851EBE37101F0004507D54FF081
:1006C800000EDCF1000C7EEB00006EEB0101B1F5D1
:1006D800801F1BD3B1F5001F0CD349085FEA300017
:1006E8004FEA3C0C04F101044FEA445212F5800F22
:1006F80080F09A80BCF1004F08BF5FEA500C50F1BF
:10070800000041EB045141EA050130BD5FEA4C0CA1
:10071800404141EB0101013C28BFB1F5801FE9D2FE
:1007280091F0000F04BF01460020B1FA81F308BF21
:100738002033A3F10B03B3F120020CDA0C3208DDED
:1007480002F1140CC2F10C0201FA0CF021FA02F1C8
:100758000CE002F11402D8BFC2F1200C01FA02F138
:1007680020FA0CFCDCBF41EA0C019040E41AA2BF5D
:1007780001EB0451294330BD6FEA04041F3C1CDA25
:100788000C340EDC04F11404C4F1200220FA04F045
:1007980001FA02F340EA030021FA04F345EA0301EF
:1007A80030BDC4F10C04C4F1200220FA02F001FAB1
:1007B80004F340EA0300294630BD21FA04F0294633
:1007C80030BD94F0000F83F4801306BF81F48011CC
:1007D8000134013D4EE77FEA645C18BF7FEA655C3F
:1007E80029D094EA050F08BF90EA020F05D054EA11
:1007F800000C04BF1946104630BD91EA030F1EBF16
:100808000021002030BD5FEA545C05D14000494119
:1008180028BF41F0004130BD14F580043CBF01F50C
:10082800801130BD01F0004545F0FE4141F47001F2
:100838004FF0000030BD7FEA645C1ABF19461046CD
:100848007FEA655C1CBF0B46024650EA013406BFCE
:1008580052EA033591EA030F41F4002130BD00BF8D
:1008680090F0000F04BF0021704730B54FF480644A
:1008780004F132044FF000054FF0000150E700BFCB
:1008880090F0000F04BF0021704730B54FF480642A
:1008980004F1320410F0004548BF40424FF0000117
:1008A8003EE700BF42004FEAE2014FEA31014FEA5A
:1008B80002701FBF12F07F4393F07F4F81F06051A9
:1008C800704732F07F4208BF704793F07F4F04BFF4
:1008D80041F40021704730B54FF4607401F00045D1
:1008E80021F000411CE700BF50EA010208BF704731
:1008F80030B54FF000050AE050EA010208BF704722
:1009080030B511F0004502D5404261EB41014FF48A
:10091800806404F132045FEA915C3FF4D8AE4FF092
:1009280003025FEADC0C18BF03325FEADC0C18BF75
:10093800033202EBDC02C2F1200300FA03FC20FAC6
:1009480002F001FA03FE40EA0E0021FA02F1144413
:10095800BDE600BF4FEA410212F5001215D211D5CB
:100968006FF47873B3EB625212D94FEAC12343F0A4
:10097800004343EA505311F0004F23FA02F018BF26
:10098800404270474FF00000704750EA013005D1EF
:1009980011F0004008BF6FF0004070474FF00000B2
:1009A800704700BF80F0004002E000BF81F00041C6
:1009B80042001FBF5FEA410392EA030F7FEA226CFD
:1009C8007FEA236C6AD04FEA1262D2EB1363C1BF8D
:1009D800D218414048404140B8BF5B42192B88BFFC
:1009E800704710F0004F40F4000020F07F4018BF1F
:1009F800404211F0004F41F4000121F07F4118BF3F
:100A0800494292EA030F3FD0A2F1010241FA03FCE6
:100A180010EB0C00C3F1200301FA03F100F00043CE
:100A280002D5494260EB4000B0F5000F13D3B0F196
:100A3800807F06D340084FEA310102F10102FE2A05
:100A480051D2B1F1004F40EBC25008BF20F0010075
:100A580040EA03007047490040EB0000013A28BF14
:100A6800B0F5000FEDD2B0FA80FCACF1080CB2EB97
:100A78000C0200FA0CF0AABF00EBC2505242184315
:100A8800BCBFD0401843704792F0000F81F40001BA
:100A980006BF80F400000132013BB5E74FEA41038D
:100AA8007FEA226C18BF7FEA236C21D092EA030FF9
:100AB80004D092F0000F08BF0846704790EA010F73
:100AC8001CBF0020704712F07F4F04D1400028BFA0
:100AD80040F00040704712F100723CBF00F5000082
:100AE800704700F0004343F0FE4040F400007047B8
:100AF8007FEA226216BF08467FEA23630146420264
:100B080006BF5FEA412390EA010F40F48000704776
:100B18004FF0000304E000BF10F0004348BF40421C
:100B28005FEA000C08BF704743F0964301464FF058
:100B380000001CE050EA010208BF70474FF00003B4
:100B48000AE000BF50EA010208BF704711F00043F5
:100B580002D5404261EB41015FEA010C02BF8446C5
:100B68000146002043F0B64308BFA3F18053A3F524
:100B78000003BCFA8CF2083AA3EBC25310DB01FA6B
:100B880002FC634400FA02FCC2F12002BCF1004FEF
:100B980020FA02F243EB020008BF20F00100704780
:100BA80002F1200201FA02FCC2F1200250EA4C00D4
:100BB80021FA02F243EB020008BF20EADC7070471A
:100BC8004FEA4002B2F1FE4F0FD34FF09E03B3EB52
:100BD80012620DD94FEA002343F0004310F0004F92
:100BE80023FA02F018BF404270474FF000007047E8
:100BF80012F1610F01D1420205D110F0004008BF87
:100C08006FF0004070474FF00000704772B6FEE783
:100C180000B591B02822002106A802F059FC002353
:100C280001930293039304930593012206924FF4D0
:100C3800803307930A9202220D920E934FF4E01329
:100C48000F9306A800F032FA80B90F23019302210E
:100C58000291002303934FF480620492059301A844
:100C680000F064FC20B911B05DF804FBFFF7CEFF7B
:100C7800FFF7CCFF08B500F0CBF9FFF7C9FF00F08C
:100C880039F901F0F3F901F0A3F901F009FA01F0DB
:100C980021FA01F0B7F901F0CFF902F018F902F0E2
:100CA80053F902F011FB58E04FF47A7002F028F97A
:100CB80053E04FF47A7002F07BF94EE08A4802F074
:100CC8001FF94AE04FF47A7002F0A6F945E00021D6
:100CD8004FF47A7002F040F93FE000214FF47A7047
:100CE80002F06EF939E04FF47A7002F09DF934E0C1
:100CF8004FF47A7002F09FF92FE002F0A3F92CE08C
:100D080002F0C2F929E002F0DFF926E002F0FCF96E
:100D180023E002F01BFA20E002F03CFA1DE002F0AA
:100D28005DFA1AE002F07EFA17E002F0B5FA14E074
:100D380002F09AFA11E002F0C7FA0EE002F04EFB58
:100D48000BE002F001F908E002F0FEF802F046FBC1
:100D580003E002F0F9F802F041FB64230122634941
:100D6800634801F08EFC0028F3D1604B1B78203BD0
:100D78005A2BE9D801A252F823F000BF4B0D000806
:100D8800510D0008510D0008510D0008510D0008C3
:100D9800510D0008510D0008510D0008510D0008B3
:100DA800510D0008510D0008450D0008510D0008AF
:100DB8003F0D0008510D0008510D0008390D0008BD
:100DC800030D0008090D00080F0D0008150D000897
:100DD8001B0D0008210D0008270D00082D0D000827
:100DE800330D0008510D0008510D0008510D000881
:100DF800510D0008510D0008510D0008510D000853
:100E0800510D0008510D0008510D0008510D000842
:100E1800510D0008510D0008510D0008510D000832
:100E2800510D0008510D0008510D0008510D000822
:100E3800510D0008510D0008510D0008510D000812
:100E4800510D0008510D0008510D0008510D000802
:100E5800510D0008510D0008510D0008510D0008F2
:100E6800510D0008510D0008510D0008510D0008E2
:100E7800510D0008510D0008510D0008510D0008D2
:100E8800BB0C0008510D0008F90C0008CD0C000837
:100E9800E30C0008510D0008510D0008510D000821
:100EA800510D0008510D0008510D0008510D0008A2
:100EB800510D0008510D0008510D0008510D000892
:100EC800D70C0008510D0008C50C0008510D00088A
:100ED800510D0008510D0008B10C0008510D000813
:100EE800510D0008EF0C000818FCFFFF3C00002023
:100EF800CC00002084B0134B9A6942F020029A611A
:100F08009A6902F020020092009A9A6942F004025B
:100F18009A619A6902F004020192019A9A6942F070
:100F280008029A619A6902F008020292029A9A6982
:100F380042F010029A619B6903F010030393039B2C
:100F480004B0704700100240FEE7FEE7FEE7FEE748
:100F5800FEE770477047704708B500F06BF808BDAA
:100F680008B5024800F050FE08BD00BF440000204C
:100F780008B5024801F0A4FC08BD00BFCC00002061
:100F880082B00E4B9A6942F001029A619A6902F0A6
:100F980001020092009ADA6942F08052DA61DB6954
:100FA80003F080530193019B054A536823F0E063E3
:100FB80043F00073536002B0704700BF0010024056
:100FC8000000014010B504460E4B18784FF47A73B0
:100FD800B3FBF0F30C4A1068B0FBF3F000F0E2FF4B
:100FE80068B90F2C01D901200AE0002221464FF0F0
:100FF800FF3000F091FF054B1C60002000E001204D
:1010080010BD00BF000000200800002004000020E0
:1010180008B5074A136843F010031360032000F073
:1010280069FF0F20FFF7CEFFFFF7AAFF002008BDDA
:1010380000200240034A1168034B1B780B441360DD
:10104800704700BF4000002000000020014B1868D6
:10105800704700BF4000002038B50446FFF7F6FF90
:101068000546B4F1FF3F02D0044B1B781C44FFF740
:10107800EDFF401BA042FAD338BD00BF000000209E
:1010880082B0084B1B68084AA2FB03235B0A00FBDB
:1010980003F3019300BF019B5A1E0192002BF9D163
:1010A80002B0704708000020D34D6210002800F0FD
:1010B800F18170B582B00446036813F0010F2CD09B
:1010C800994B5B6803F00C03042B1DD0964B5B68AF
:1010D80003F00C03082B12D06368B3F5803F41D0AE
:1010E800002B55D103F1804303F504331A6822F429
:1010F80080321A601A6822F480221A6037E08A4B1C
:101108005B6813F4803FE7D0874B1B6813F4003FFC
:1011180003D06368002B00F0BF81236813F0020F2F
:1011280075D0814B5B6813F00C0F5FD07E4B5B680A
:1011380003F00C03082B54D02369002B00F08A809D
:101148007A4B01221A60FFF781FF0546764B1B6830
:1011580013F0020F75D1FFF779FF401B0228F5D96C
:1011680003209EE1704A136843F480331360636878
:1011780043B3FFF76BFF05466B4B1B6813F4003F47
:10118800CBD1FFF763FF401B6428F5D9032088E122
:10119800B3F5A02F09D0644B1A6822F480321A6084
:1011A8001A6822F480221A60E1E703F18043A3F56C
:1011B8003C331A6842F480221A601A6842F480327A
:1011C8001A60D4E7FFF742FF0546574B1B6813F434
:1011D800003FA2D0FFF73AFF401B6428F5D903204F
:1011E8005FE1514B5B6813F4803FA5D14E4B1B6800
:1011F80013F0020F03D02369012B40F04F814A4AB4
:10120800136823F0F803616943EAC1031360236894
:1012180013F0080F33D0A369002B5CD0434B012295
:10122800C3F88024FFF712FF05463F4B5B6A13F0B3
:10123800020F21D1FFF70AFF401B0228F5D903202E
:101248002FE1394A136823F0F803616943EAC103BF
:101258001360DCE7354B00221A60FFF7F7FE0546FE
:10126800314B1B6813F0020FD1D0FFF7EFFE401B84
:101278000228F5D9032014E10120FFF701FF2368B4
:1012880013F0040F00F09680274BDB6913F0805FA2
:1012980034D1254BDA6942F08052DA61DB6903F018
:1012A80080530193019B0125214B1B6813F4807F18
:1012B80026D0E368012B3DD0002B53D103F18043A6
:1012C80003F504331A6A22F001021A621A6A22F03C
:1012D80004021A6233E0154B0022C3F88024FFF79A
:1012E800B5FE0546104B5B6A13F0020FC7D0FFF737
:1012F800ADFE401B0228F5D90320D2E00025D3E734
:101308000B4A136843F480731360FFF79FFE064689
:10131800074B1B6813F4807FCBD1FFF797FE801B28
:101328006428F5D90320BCE00010024000004242C6
:10133800007000405F4A136A43F001031362E368D8
:1013480033B3FFF783FE06465A4B1B6A13F0020FAE
:101358002FD1FFF77BFE801B41F288339842F3D9E7
:1013680003209EE0052B09D0524B1A6A22F0010295
:101378001A621A6A22F004021A62E0E74D4B1A6AEE
:1013880042F004021A621A6A42F001021A62D6E7AF
:10139800FFF75CFE0646474B1B6A13F0020F08D0A6
:1013A800FFF754FE801B41F288339842F3D903209B
:1013B80077E0E5B9E369002B72D03E4A526802F043
:1013C8000C02082A56D0022B17D03B4B00221A6673
:1013D800FFF73CFE0446374B1B6813F0007F47D0ED
:1013E800FFF734FE001B0228F5D9032059E0314AE3
:1013F800D36923F08053D361DCE72F4B00221A66B0
:10140800FFF724FE05462B4B1B6813F0007F06D020
:10141800FFF71CFE401B0228F5D9032041E0236A90
:10142800B3F5803F1AD023494B6823F47413226A1A
:10143800606A024313434B601F4B01221A66FFF791
:1014480005FE04461B4B1B6813F0007F0ED1FFF707
:10145800FDFD001B0228F5D9032022E0154A536838
:1014680023F40033A1680B435360DCE7002018E045
:10147800002016E0012B16D00E4B5B6803F4803178
:10148800226A914211D103F47013626A93420ED119
:10149800002006E001207047012002E0012000E062
:1014A800002002B070BD0120FBE70120F9E7012010
:1014B800F7E700BF001002400000424286B0174B19
:1014C8000FCB0DF1180C0CE90F0040F20123ADF819
:1014D8000430134B5B6803F00C02082A02D0114851
:1014E80006B07047C3F3834218326A4412F8100CEE
:1014F80013F4803F0DD00A4B5B68C3F340431833A5
:101508006B4413F8143C074A02FB00F0B0FBF3F0FD
:10151800E6E7054B03FB00F0E2E700BF00350008F3
:101528000010024000127A0000093D00002800F077
:10153800A08070B50D460446524B1B6803F00703A4
:101548008B420BD24F4A136823F007030B431360F7
:10155800136803F007038B4240F08D80236813F073
:10156800020F17D013F0040F04D0474A536843F40E
:10157800E0635360236813F0080F04D0424A5368AD
:1015880043F460535360404A536823F0F003A16862
:101598000B435360236813F0010F31D06368012BAC
:1015A80020D0022B25D0384A126812F0020F64D0DE
:1015B80035494A6822F0030213434B60FFF746FDA2
:1015C8000646314B5B6803F00C036268B3EB820F8D
:1015D80016D0FFF73BFD801B41F288339842F0D9C3
:1015E800032045E0284A126812F4003FE0D10120A8
:1015F8003EE0254A126812F0007FD9D1012037E079
:10160800204B1B6803F00703AB420AD91D4A136835
:1016180023F007032B431360136803F00703AB425F
:101628002DD1236813F0040F06D0174A536823F40A
:10163800E063E1680B435360236813F0080F07D099
:10164800114A536823F46053216943EAC103536084
:10165800FFF734FF0C4B5B68C3F303130B4AD35CEF
:10166800D8400B4B18600B4B1868FFF7ABFC0020F9
:1016780070BD012070470120FAE70120F8E701203A
:10168800F6E700BF002002400010024014350008B1
:101698000800002004000020014B1868704700BFB4
:1016A8000800002008B5FFF7F7FF044B5B68C3F399
:1016B8000223034AD35CD84008BD00BF0010024093
:1016C8002435000808B5FFF7E7FF044B5B68C3F350
:1016D800C223034AD35CD84008BD00BF00100240B3
:1016E8002435000870B582B00024A446B0E0874DC8
:1016F800AA4210D007D9864DAA420CD005F58035EC
:10170800AA4208D013E0A5F58015AA4203D005F532
:101718007025AA4207D18A68002A62D0012A5BD0C4
:101728004361082403E0A5F58015AA42F3D0BEF171
:10173800FF0F58D80646BEF1FF0F56D84FEA8C0265
:1017480033680F25954023EA050304FA02F2134390
:1017580033604B6813F0805F78D06E4B9A6942F023
:1017680001029A619B6903F001030193019B4FEA0F
:101778009C02951C684B53F825600CF003039D00F0
:101788000F23AB4026EA0306644B984233D003F597
:101798008063984200F0988003F58063984200F0D7
:1017A800958003F58063984200F0928003F580638A
:1017B800984200F08F8003F58063984219D0062381
:1017C8001AE0CC68B3E7CC680434B0E7CC680834D6
:1017D800ADE7CC680C34AAE703610824A7E7002426
:1017E800A5E70424A3E7061DA5E7ACF108029200CB
:1017F800A6E7052300E00023AB4033430232464D01
:1018080045F822304B6813F4803F65D0444A13688A
:1018180043EA0E0313604B6813F4003F62D0404A5A
:10182800536843EA0E0353604B6813F4801F5FD07C
:101838003B4A936843EA0E0393604B6813F4001F16
:101848005CD0374AD36843EA0E03D3600CF1010C2D
:101858000A6832FA0CF357D0012303FA0CF302EAB0
:10186800030E33EA0202F1D14A68122A3FF63FAF6B
:10187800122A3FF65CAF01A555F822F01F170008A1
:10188800CB170008D5170008E71700083717000816
:1018980037170008371700083717000837170008E8
:1018A80037170008371700083717000837170008D8
:1018B80037170008371700083717000837170008C8
:1018C800CF170008DB170008012395E7022393E7E9
:1018D800032391E704238FE7114A136823EA0E03D1
:1018E800136098E70E4A536823EA0E0353609BE798
:1018F8000B4A936823EA0E0393609EE7084AD3686D
:1019080023EA0E03D360A1E702B070BD00002210E5
:1019180000003110001002400000014000080140A2
:101928000004014030B40124056CAC40C56B6C6008
:10193800046863604368102B05D0036899600368E6
:10194800DA6030BC704703689A600368D960F8E7CA
:1019580000283AD010B4024600681D4B984229D896
:101968001C4B03441C49A1FB03131B099B00136474
:101978001A4BD363022382F82130016821F47F5186
:1019880021F03001536894682343D46823431469D1
:1019980023435469234394692343D46923430B4362
:1019A800036000209063012382F8213082F8200030
:1019B80010BC70470A4B03440749A1FB03131B09DA
:1019C8009B001364074BD363D4E70120704700BF23
:1019D80007040240F8FFFDBFCDCCCCCC000002408C
:1019E800F8FBFDBF0004024038B5044690F820001B
:1019F800012831D0012084F8200094F82100012822
:101A080004D0002384F82030022038BD022084F856
:101A180021000020A0632568286820F001002860C4
:101A28002046FFF77FFFE36A5BB12268136843F043
:101A38000E0313602268136843F00103136000204B
:101A4800E3E72268136823F004031360226813682D
:101A580043F00A031360EDE70220D6E790F821303F
:101A6800022B06D004238363002380F82030012052
:101A780070470268136823F00E0313600268136846
:101A880023F001031360036CC16B012202FA03F314
:101A98004B6080F82120002380F8203018467047DA
:101AA80008B590F82130022B03D00423836301206A
:101AB80008BD0268136823F00E03136002681368F8
:101AC80023F00103136003684B4A93424ED9783AD6
:101AD800934224D01432934230D0143293422FD000
:101AE800143293422FD0143293422FD0143293429F
:101AF8002FD0143293422FD002F5627293422ED027
:101B0800143293422DD0143293422CD01432934283
:101B180002D04FF4803203E04FF4805200E00122FB
:101B2800364B5A60012380F82130002380F820309A
:101B3800436B002B5ED098470020B9E71022EFE7EF
:101B48004FF48072ECE74FF48052E9E74FF48032AB
:101B5800E6E74FF48012E3E74FF08072E0E70122F6
:101B6800DEE71022DCE74FF48072D9E7244A93427B
:101B780024D01432934225D01432934224D0143204
:101B8800934224D01432934224D01432934224D066
:101B98001432934224D002F56272934223D0143255
:101BA800934222D01432934221D01432934202D06D
:101BB8004FF4803203E04FF4805200E00122114BD1
:101BC8005A60AFE71022FAE74FF48072F7E74FF454
:101BD8008052F4E74FF48032F1E74FF48012EEE7D9
:101BE8004FF08072EBE70122E9E71022E7E74FF4B4
:101BF8008072E4E700205BE78000024000040240B6
:101C0800080002400000024038B5C36B1A68046837
:101C18002568016C04238B40134200F09B8015F06B
:101C2800040F00F09780236813F0200F03D1236876
:101C380023F00403236003689A4A934246D9783A0A
:101C4800934224D01432934228D01432934227D09E
:101C58001432934227D01432934227D0143293423D
:101C680027D01432934227D002F56272934226D0CD
:101C78001432934225D01432934224D01432934222
:101C880002D04FF4802203E04FF4804200E00422A7
:101C9800854B5A60C36A03B1984738BD4022F7E7BD
:101CA8004FF48062F4E74FF48042F1E74FF480226A
:101CB800EEE74FF48002EBE74FF08062E8E704229A
:101CC800E6E74022E4E74FF48062E1E7774A93428F
:101CD80024D01432934225D01432934224D01432A3
:101CE800934224D01432934224D01432934224D005
:101CF8001432934224D002F56272934223D01432F4
:101D0800934222D01432934221D01432934202D00B
:101D18004FF4802203E04FF4804200E00422644B39
:101D28005A60B7E74022FAE74FF48062F7E74FF4CA
:101D38008042F4E74FF48022F1E74FF48002EEE7A7
:101D48004FF08062EBE70422E9E74022E7E74FF42F
:101D58008062E4E702238B40134200F0AB8015F069
:101D6800020F00F0A780236813F0200F06D1236824
:101D780023F00A032360012380F821300368494ACD
:101D880093424BD9783A934224D0143293422DD0BF
:101D9800143293422CD0143293422CD014329342F2
:101DA8002CD0143293422CD0143293422CD002F50A
:101DB800627293422BD0143293422AD01432934247
:101DC80029D01432934202D04FF4003203E04FF48A
:101DD800005200E00222344B5A60002380F8203081
:101DE800836A002B3FF459AF984756E72022F2E761
:101DF8004FF40072EFE74FF40052ECE74FF4003273
:101E0800E9E74FF40012E6E74FF00072E3E7022239
:101E1800E1E72022DFE74FF40072DCE7234A934230
:101E280024D01432934225D01432934224D0143251
:101E3800934224D01432934224D01432934224D0B3
:101E48001432934224D002F56272934223D01432A2
:101E5800934222D01432934221D01432934202D0BA
:101E68004FF4003203E04FF4005200E00222104B1E
:101E78005A60B2E72022FAE74FF40072F7E74FF40E
:101E88000052F4E74FF40032F1E74FF40012EEE7A6
:101E98004FF00072EBE70222E9E72022E7E74FF470
:101EA8000072E4E78000024000040240080002409B
:101EB80000000240082303FA01F111423FF4EDAE9D
:101EC80015F0080F3FF4E9AE236823F00E032360F2
:101ED800026CC16B012303FA02F24A60836380F843
:101EE8002130002380F82030036B002B3FF4D5AE5F
:101EF8009847D2E6074AD36823F4E0631B041B0C17
:101F0800000200F4E060034343F0BF6343F400338E
:101F1800D360704700ED00E000B5194BDB68C3F3F0
:101F28000223C3F1070CBCF1040F28BF4FF0040CC7
:101F380003F1040EBEF1060F18D9033B4FF0FF3E24
:101F48000EFA0CFC21EA0C0199400EFA03F322EA7E
:101F58000303194300280BDB0901C9B200F16040F3
:101F680000F5614080F800135DF804FB0023E5E705
:101F780000F00F000901C9B2024B1954F4E700BF81
:101F880000ED00E014ED00E0002807DB00F01F0280
:101F9800400901239340024A42F82030704700BFAD
:101FA80000E100E00138B0F1807F0BD24FF0E02370
:101FB8005861054AF02182F8231000209861072211
:101FC8001A6170470120704700ED00E0704700007B
:101FD80000B583B00A4B5A6942F001025A615B6945
:101FE80003F001030193019B002211461020FFF723
:101FF80093FF1020FFF7C8FF03B05DF804FB00BF94
:102008000010024008B50A480A4B03604FF4E13358
:10201800436000238360C36003610C2242618361D3
:10202800C36100F093FA00B908BDFEF7EFFDFBE7C6
:1020380054010020004C004008B50A480A4B0360D0
:102048004FF4E133436000238360C36003610C22D3
:1020580042618361C36100F079FA00B908BDFEF7F7
:10206800D5FDFBE7980100200050004008B50A485C
:102078000A4B03604FF4E133436000238360C3607D
:1020880003610C2242618361C36100F05FFA00B909
:1020980008BDFEF7BBFDFBE78800002000380140C3
:1020A80008B50A480A4B03604FF4E1334360002344
:1020B8008360C36003610C2242618361C36100F0E5
:1020C80045FA00B908BDFEF7A1FDFBE7CC000020EA
:1020D8000044004008B50A480A4B03604FF4E13356
:1020E800436000238360C36003610C224261836103
:1020F800C36100F02BFA00B908BDFEF787FDFBE7C6
:10210800100100200048004070B590B000230C93E7
:102118000D930E930F930368834A934210D004469D
:10212800824A934236D0824A934264D0814A93428B
:1021380000F08B80804A934200F0CB8010B070BDD5
:102148007E4BDA6942F40022DA61DA6902F400228D
:102158000192019A9A6942F010029A619B6903F010
:1021680010030293029B4FF480630C9302230D9398
:1021780003230F93724C0CA92046FFF7B3FA4FF4D0
:1021880000630C9300230D930E930CA92046FFF7D0
:10219800A9FAD3E7694BDA6942F48012DA61DA699D
:1021A80002F480120392039A9A6942F010029A612B
:1021B8009A6902F010020492049A9A6942F0200285
:1021C8009A619B6903F020030593059B4FF48053A4
:1021D8000C9302230D9303230F930CA95848FFF780
:1021E80081FA04230C9300230D930E930CA95548F0
:1021F800FFF778FAA2E7514B9A6942F480429A6154
:102208009A6902F480420692069A9A6942F0040298
:102218009A619B6903F004030793079B4FF40073CB
:102228000C9302230D9303230F93474C0CA92046CC
:10223800FFF758FA4FF480630C9300230D930E9325
:102248000CA92046FFF74EFA78E73C4BDA6942F4CE
:102258000032DA61DA6902F400320892089A9A695F
:1022680042F004029A619B6903F004030993099BF5
:1022780004230C9302230D9303230F93324E0CA9CE
:102288003046FFF72FFA08230C9300250D950E957D
:102298000CA93046FFF726FA2C482D4B0360456001
:1022A80085608023C360056145618561C561FFF76D
:1022B8004FFB58B9254BA3635C62002211462620C8
:1022C800FFF72AFE2620FFF75FFE37E7FEF79EFCA2
:1022D800F0E71A4BDA6942F48022DA61DA6902F42B
:1022E80080220A920A9A9A6942F008029A619B69C6
:1022F80003F008030B930B9B4FF480630C930223AA
:102308000D9303230F93134C0CA92046FFF7EAF90A
:102318004FF400630C9300230D930E930CA92046F1
:10232800FFF7E0F90AE700BF004C0040005000400A
:1023380000380140004400400048004000100240BE
:102348000010014000140140000801404400002032
:102358006C000240000C01407047000008B5084BB3
:102368001B68834200D008BD002283F83C20054941
:102378000A70C8220449184600F01CFCF3E700BFA5
:10238800A8020020DC010020E0010020044B1B68AB
:10239800834200D07047034B01221A70FAE700BF4E
:1023A800A8020020DC0100200268D36823F0C003E3
:1023B800D360202380F83D3070470268D36823F447
:1023C8009073D3600268536923F001035361036B70
:1023D800012B05D0202380F83E300023036370478B
:1023E8000268D36823F01003D360F3E790F83D3018
:1023F800DBB2212B01D0022070478368B3F5805FE0
:1024080017D0036A5A1C02621A7803685A60C38C90
:102418009BB2013B9BB2C3844BB90268D36823F0DB
:102428008003D3600268D36843F04003D360002080
:1024380070470369002BE4D1036A1B880268C3F361
:1024480008035360036A02330362E0E710B50446E9
:102458000268136923F44053C1680B43136183680E
:102468000269134342691A430168CB6823F4B053E5
:1024780023F00C031343CB600268536923F44073C1
:1024880081690B4353610268134B9A4220D0FFF7CE
:1024980009F9024602EB820202EB820263689B00A2
:1024A800B2FBF3F20D48A0FB02314909642303FB98
:1024B80011231B013233A0FB03235B0903F0F00255
:1024C80002EB011203F00F03216813448B6010BD67
:1024D800FFF7F8F80246DDE7003801401F85EB51A9
:1024E8002DE9F84305460F4616469946DDF8208043
:1024F8002C68246837EA04030CBF4FF0010C4FF036
:10250800000CB4451FD1B8F1FF3FF1D0B8F1000F6E
:1025180005D0FEF79BFDA0EB09004045E8D92A68E5
:10252800D36823F4D073D3602A68536923F0010376
:102538005361202385F83D3085F83E30002385F827
:102548003C30032000E00020BDE8F88358B310B504
:10255800044690F83D300BB3242384F83D302268BC
:10256800D36823F40053D3602046FFF76FFF226837
:10257800136923F4904313612268536923F02A03F3
:1025880053612268D36843F40053D3600020206469
:10259800202384F83D3084F83E3010BD80F83C306C
:1025A800FFF7B2FDD8E7012070472DE9F04182B06E
:1025B8001E4690F83D30DBB2202B54D104460D4620
:1025C8009046002953D0002A53D090F83C30012B74
:1025D80051D0012380F83C3000230364212380F884
:1025E8003D30FEF733FD0746A4F82480A4F8268082
:1025F800A368B3F5805F05D04FF00008002384F886
:102608003C3012E0236913B14FF00008F6E7A84602
:102618000025F3E738F8023B2268C3F30803536048
:10262800E28C92B2013A92B2E284E38C9BB273B12B
:1026380000963B46002280212046FFF751FFE0B973
:10264800002DE7D015F8012B23685A60E8E70096BB
:102658003B46002240212046FFF742FF78B920235D
:1026680084F83D3000E0022002B0BDE8F08101208E
:10267800FAE70120F8E70220F6E70320F4E7032051
:10268800F2E72DE9F04182B01E4690F83E30DBB209
:10269800202B5CD104460D46904600295BD0002AC9
:1026A8005BD090F83C30012B59D0012380F83C30A6
:1026B80000230364222280F83E200363FEF7C6FC51
:1026C8000746A4F82C80A4F82E80A368B3F5805F91
:1026D80005D04FF00008002384F83C3017E0236948
:1026E80013B14FF00008F6E7A8460025F3E7236882
:1026F8005B68C3F3080328F8023B03E023685B68C0
:102708002B700135E28D92B2013A92B2E285E38DE7
:102718009BB2BBB100963B46002220212046FFF722
:10272800DFFEF0B9002DE2D0A368B3F5805FE5D0F5
:1027380013B92369002BE1D023685B6803F07F039A
:102748002B70DEE7202384F83E30002000E00220D2
:1027580002B0BDE8F0810120FAE70120F8E7022085
:10276800F6E70320F4E7704708B50168CA6822F065
:102778004002CA60202280F83D20FFF7F4FF0020C5
:1027880008BD704710B5446A23685A6994F83D300B
:10279800DBB2212B10D023685A6902F0400294F86A
:1027A8003E30DBB2222B11D0236C43F0100323649C
:1027B8002046FFF7D3FD10BD02F08002002AEAD0C0
:1027C8000023E3842046FFF7EFFDE4E7002AEBD07F
:1027D8000023E3852046FFF7F0FDE5E708B5406AEA
:1027E8000023C385C384FFF7B9FD08BD90F83E30C8
:1027F800DBB2222B60D18368B3F5805F46D0826A52
:10280800B3F5805F04D0002B4DD10369002B4AD16A
:1028180003685B681370836A01338362C38D9BB25C
:10282800013B9BB2C385002B48D100B583B0026839
:10283800D36823F02003D3600268D36823F480733D
:10284800D3600268536923F001035361202380F8A1
:102858003E30036B012B2CD1002303630268D3683D
:1028680023F01003D36003681A6812F0100F06D023
:10287800002201921A6801925B680193019B818D85
:10288800FFF784FD002003B05DF804FB0269002A0D
:10289800B5D1826A03685B68C3F308031380836A4F
:1028A80002338362BAE703685B6803F07F0313703F
:1028B800B1E7FFF751FDE5E70220704700207047B8
:1028C80030B583B0044602681368D068516913F0C4
:1028D8000F0505D113F0200F02D010F0200F19D1E9
:1028E8002DB111F0010119D110F4907F16D1216B8F
:1028F800012975D013F0800F03D010F0800F40F03D
:10290800D78013F0400F03D010F0400F40F0D48070
:1029180003B030BD2046FFF769FFF9E713F0010F58
:1029280006D010F4807F03D0226C42F001022264AA
:1029380013F0040F04D019B1226C42F00202226491
:1029480013F0020F04D019B1226C42F00402226481
:1029580013F0080F07D010F0200F00D119B1226C26
:1029680042F008022264226C002AD1D013F0200F12
:1029780002D010F0200F21D123685B6903F04003D7
:10298800226C12F0080F00D123B32046FFF715FD83
:1029980023685A6912F0400F18D05A6922F0400291
:1029A8005A61A36B73B1464A5A63A06BFFF778F874
:1029B8000028ADD0A06B436B9847A9E72046FFF7E6
:1029C80015FFD9E72046FFF7C9FCA1E72046FFF726
:1029D800C5FC9DE72046FFF7C1FC0023236497E769
:1029E80013F0100F86D010F0100F83D0002301933E
:1029F8001368019353680193019B536913F0400FC7
:102A080032D0A16B0B685B689BB2002B80D0A08D85
:102A180098427FF67DAFE3858B69202B08D1A18D85
:102A2800E38D9BB2C91A89B22046FFF7AFFC6FE766
:102A3800D36823F48073D3602268536923F00103B9
:102A480053612268536923F040035361202384F8BB
:102A58003E30002323632268D36823F01003D36039
:102A6800A06BFEF7FBFFDAE7A18DE38D9BB2C91AD5
:102A780089B2E38D9BB2002B3FF44AAF00293FF4A3
:102A880047AFD36823F49073D3602268536923F067
:102A980001035361202384F83E3000232363226816
:102AA800D36823F01003D3602046FFF76FFC2FE7AD
:102AB8002046FFF79BFC2BE72046FFF755FE27E74C
:102AC800E527000808B5406A036B012B02D0FFF721
:102AD80058FE08BD818D4908FFF758FCF9E708B58D
:102AE8000346406A1B681B6813F0200F16D10023A9
:102AF800C3850268D36823F48073D360026853697E
:102B080023F0010353610268536923F040035361C2
:102B1800202380F83E30036B012B05D0036B012B7B
:102B280008D0FFF719FC08BD0268D36823F010032A
:102B3800D360F3E7818DFFF729FCF4E730B583B064
:102B4800044613468162828500250564222280F8A6
:102B58003E20826B14489062A26B1448D062A26B2C
:102B680013481063A26B556320680A46011DA06BC9
:102B7800FEF73AFF019523681A6801925A68019294
:102B8800019A84F83C50DA6842F48072DA6022686C
:102B9800536943F0010353612268536943F04003CA
:102BA8005361284603B030BDE72A0008CD2A000843
:102BB8008D27000890F83E30DBB2202B21D110B5CC
:102BC80082B00446F9B102B390F83C30012B1FD013
:102BD800012380F83C300363FFF7B0FFB0B9236BE3
:102BE800012B01D0012011E00023019323681A680A
:102BF80001925A680192019ADA6842F01002DA608A
:102C080004E002207047012000E0012002B010BD5E
:102C18000220FBE708B5044908704FF0FF33012292
:102C28000248FFF7C2FC08BDAC0200209801002052
:102C380008B5044908704FF0FF3301220248FFF736
:102C4800B4FC08BDAC0200209801002008B5FEF7CE
:102C580003FA08BD2DE9F0410746B2F5806F01D3AC
:102C680040F2FF32B1F5806F01D340F2FF31150A0F
:102C7800D6B24FEA1128CCB2FF20FFF7CBFFFF20D6
:102C8800FFF7C8FF3846FFF7C5FF0720FFF7C2FF69
:102C98000320FFF7BFFF0620FFF7BCFF2046FFF722
:102CA800B9FF4046FFF7B6FF3046FFF7B3FF2846A7
:102CB800FFF7B0FFE019C0B24044C0B23044C0B220
:102CC8002844C0B21030C0B2C043C0B2FFF7A2FF60
:102CD8000220FFF7BBFFBDE8F08170B5054600296B
:102CE80031DB89B20024B1F5806F01D340F2FF31A6
:102CF80041EA8421C1F30726CCB2FF20FFF78AFFFF
:102D0800FF20FFF787FF2846FFF784FF0520FFF71E
:102D180081FF0320FFF77EFF2020FFF77BFF20467F
:102D2800FFF778FF3046FFF775FF6019C0B23044EF
:102D3800C0B22830C0B2C043C0B2FFF76BFF022058
:102D4800FFF784FF70BD494289B20124CBE72DE922
:102D5800F0410746B2F5806F01D340F2FF32B1F57A
:102D6800806F01D340F2FF31150AD6B24FEA11281D
:102D7800CCB2FF20FFF75CFFFF20FFF759FF384672
:102D8800FFF756FF0720FFF753FF0320FFF750FF19
:102D98000620FFF74DFF2046FFF74AFF4046FFF7A2
:102DA80047FF3046FFF744FF2846FFF741FFE01989
:102DB800C0B24044C0B23044C0B22844C0B210309F
:102DC800C0B2C043C0B2FFF733FF0220FFF73EFF97
:102DD800BDE8F0812DE9F0410746B2F5806F01D3D7
:102DE80040F2FF32B1F5806F01D340F2FF31150A8E
:102DF800D6B24FEA1128CCB2FF20FFF719FFFF2007
:102E0800FFF716FF3846FFF713FF0720FFF710FFFD
:102E18000320FFF70DFF1E20FFF70AFF2046FFF7EC
:102E280007FF4046FFF704FF3046FFF701FF28463B
:102E3800FFF7FEFEE019C0B24044C0B23044C0B251
:102E48002844C0B22830C0B2C043C0B2FFF7F0FE79
:102E58000220FFF7FBFEBDE8F08170B505460029AA
:102E680031DB89B20024B1F5806F01D340F2FF3124
:102E780041EA8421C1F30726CCB2FF20FFF7D8FE30
:102E8800FF20FFF7D5FE2846FFF7D2FE0520FFF703
:102E9800CFFE0320FFF7CCFE2020FFF7C9FE204617
:102EA800FFF7C6FE3046FFF7C3FE6019C0B23044D4
:102EB800C0B22830C0B2C043C0B2FFF7B9FE02208A
:102EC800FFF7C4FE70BD494289B20124CBE708B5BB
:102ED800002211460620FFF7BDFE002211460820F9
:102EE800FFF7B8FE002211460720FFF7B3FE0022C5
:102EF80011460920FFF7AEFE08BD000000000000E3
:102F080010B5044601460620FFF7E7FE21460820D3
:102F1800FFF7E3FE6042FDF7B3FC09A3D3E9002302
:102F2800FDF77EF9FDF716FD04B221460720FFF7ED
:102F3800D4FE21460920FFF7D0FE10BDAFF3008074
:102F4800713D0AD7A370F13F08B50020FFF7D8FFFD
:102F580008BD00000000000038B505460C46FDF726
:102F6800DBFD2146FDF786FAFDF72AFE04B221466D
:102F78000620FFF7B2FE21460820FFF7AEFE6842A2
:102F8800FDF77EFC08A3D3E90023FDF749F9FDF717
:102F9800E1FC04B221460720FFF79FFE21460920E5
:102FA800FFF79BFE38BD00BF713D0AD7A370F13F04
:102FB80008B50249FFF7D0FF08BD00BF000080BF79
:102FC80070B504460E4601460620FFF786FE2146E8
:102FD8000820FFF782FE6042FDF752FC0CA3D3E9FC
:102FE8000023FDF71DF904460D463046FDF75AFC4F
:102FF80022462B46FDF714F9FDF7ACFC04B2214636
:103008000720FFF76AFE21460920FFF766FE70BD1C
:10301800713D0AD7A370F13F08B50249FFF7D0FF09
:1030280008BD00BF000080BF08B54042002100B2C3
:10303800FFF792FF08BD08B54042002100B2FFF734
:10304800BFFF08BD08B540F2FF3200210120FFF79D
:103058007EFE0C4B1B68B3F5806F0CD203F10F0298
:10306800B3F57C7F08DC074B1A607822054B19887A
:103078000120FFF7AFFE08BD024B40F2FF321A6095
:10308800F3E700BF0C00002008B540F2FF32002132
:103098000120FFF75CFE0B4B1B68B3F5806F0BD26A
:1030A800A3F10F020E2B08DD064B1A607822054BA0
:1030B80019880120FFF78EFE08BD024B00221A6016
:1030C800F4E700BF0C00002008B54FF4C8720021D7
:1030D8000220FFF73CFE0B4B1B68B3F5C87F0BD8EB
:1030E800A3F10F020E2B08DD064B1A607822054B60
:1030F80019880220FFF76EFE08BD024B00221A60F5
:10310800F4E700BF1000002008B54FF4C872002192
:103118000220FFF71CFE0C4B1B68B3F5C87F0CD8C8
:1031280003F10F02B3F5C17F08DA074B1A60782262
:10313800054B19880220FFF74DFE08BD024B4FF4DE
:10314800C8721A60F3E700BF1000002008B540F20B
:10315800FF324FF461710320FFF7F9FD0C4B1B6838
:10316800A3F561727B2A0CD803F10F02B3F57C7FBB
:1031780008DC074B1A607822054B19880320FFF7F3
:1031880029FE08BD024B40F2FF321A60F3E700BF88
:103198001400002008B540F2FF324FF4617103209B
:1031A800FFF7D5FD0C4B1B68A3F561727B2A0DD880
:1031B800A3F10F0140F29232934208DD064B1960E9
:1031C8007822054B19880320FFF704FE08BD024B3F
:1031D8004FF461721A60F3E71400002008B54FF449
:1031E800487250210420FFF7B2FD0D4B1B68A3F174
:1031F8005002B2F5347F0DD803F10F0140F21132BD
:10320800934208DC064B19607822054B1988042084
:10321800FFF7E0FD08BD024B4FF448721A60F3E770
:103228001800002008B54FF4487250210420FFF719
:103238008EFD0C4B1B68A3F15002B2F5347F0BD8FE
:10324800A3F10F025E2B08DD064B1A607822054BAE
:1032580019880420FFF7BEFD08BD024B50221A60F2
:10326800F4E700BF1800002008B54FF448724FF487
:1032780016710520FFF76BFD4FF44871054B196077
:1032880096220520FFF7A6FD4FF47A70FFF7DEFCC3
:1032980008BD00BF1C00002008B54FF448724FF469
:1032A80016710520FFF753FD4FF41671054B196091
:1032B80096220520FFF78EFD4FF47A70FFF7C6FCC3
:1032C80008BD00BF1C00002008B540F2FF320021F5
:1032D8000120FFF73CFD4FF4C87200210220FFF7E0
:1032E80036FD40F2FF324FF461710320FFF72FFDE6
:1032F8004FF4487250210420FFF729FD4FF448721B
:103308004FF416710520FFF722FD64224FF4DC719B
:103318000420FFF75FFD4FF4FA70FFF797FC962241
:1033280040F2FE310320FFF755FD4FF4FA70FFF726
:103338008DFC9622FA210220FFF74CFD4FF4FA701B
:10334800FFF784FC962240F23A210120FFF742FD64
:10335800C820FFF77BFC96224FF496710220FFF7F6
:1033680039FDC820FFF772FC96224FF461710320E3
:10337800FFF730FDC820FFF769FC9622AA21042038
:10338800FFF728FDC820FFF761FC96224FF416715D
:103398000520FFF71FFD4FF4FA60FFF757FC0A4BB3
:1033A80040F23A221A60094B4FF496721A60084BA1
:1033B8004FF461721A60074BAA221A60064B4FF449
:1033C80016721A6008BD00BF0C0000201000002013
:1033D80014000020180000201C00002008B500225E
:1033E80011460120FFF7B3FC002211460220FFF727
:1033F800AEFC002211460320FFF7A9FC002211466B
:103408000420FFF7A4FC002211460520FFF79FFCCB
:1034180000210120FFF721FD00210220FFF71DFDFB
:1034280000210320FFF719FD00210420FFF715FDF7
:1034380000210520FFF711FD08BD00000C480D49CB
:103448000D4A002302E0D458C4500433C4188C42F7
:10345800F9D30A4A0A4C002301E013600432A2425D
:10346800FBD3FEF7B3FD00F00FF8FDF703FC704740
:103478000000002020000020343500082000002033
:10348800B0020020FEE7000070B500260C4D0D4C80
:10349800641BA410A64209D100F022F800260A4DA8
:1034A8000A4C641BA410A64205D170BD55F8043B14
:1034B80098470136EEE755F8043B98470136F2E79E
:1034C8002C3500082C3500082C350008303500084C
:1034D80003460244934200D1704703F8011BF9E701
:1034E800F8B500BFF8BC08BC9E467047F8B500BFE9
:0834F800F8BC08BC9E467047B9
:1035000002030405060708090A0B0C0D0E0F101024
:1035100000000000000000000000000001020304A1
:0C35200006070809000000000102030477
:04352C000D02000884
:04353000E9010008A5
:1035340001000000100000000024F4003A02000022
:103544002C01000084030000AA00000058020000BF
:040000050800344576
:00000001FF
